{
  "_format": "hh-sol-artifact-1",
  "contractName": "ApolloAstronautsNFT",
  "sourceName": "contracts/ApolloAstronauts.sol",
  "abi": [
    {
      "inputs": [],
      "stateMutability": "nonpayable",
      "type": "constructor"
    },
    {
      "anonymous": false,
      "inputs": [
        {
          "indexed": true,
          "internalType": "address",
          "name": "owner",
          "type": "address"
        },
        {
          "indexed": true,
          "internalType": "address",
          "name": "approved",
          "type": "address"
        },
        {
          "indexed": true,
          "internalType": "uint256",
          "name": "tokenId",
          "type": "uint256"
        }
      ],
      "name": "Approval",
      "type": "event"
    },
    {
      "anonymous": false,
      "inputs": [
        {
          "indexed": true,
          "internalType": "address",
          "name": "owner",
          "type": "address"
        },
        {
          "indexed": true,
          "internalType": "address",
          "name": "operator",
          "type": "address"
        },
        {
          "indexed": false,
          "internalType": "bool",
          "name": "approved",
          "type": "bool"
        }
      ],
      "name": "ApprovalForAll",
      "type": "event"
    },
    {
      "anonymous": false,
      "inputs": [
        {
          "indexed": false,
          "internalType": "address",
          "name": "sender",
          "type": "address"
        },
        {
          "indexed": false,
          "internalType": "uint256",
          "name": "tokenId",
          "type": "uint256"
        }
      ],
      "name": "NewNFTMinted",
      "type": "event"
    },
    {
      "anonymous": false,
      "inputs": [
        {
          "indexed": true,
          "internalType": "address",
          "name": "from",
          "type": "address"
        },
        {
          "indexed": true,
          "internalType": "address",
          "name": "to",
          "type": "address"
        },
        {
          "indexed": true,
          "internalType": "uint256",
          "name": "tokenId",
          "type": "uint256"
        }
      ],
      "name": "Transfer",
      "type": "event"
    },
    {
      "inputs": [
        {
          "internalType": "address",
          "name": "to",
          "type": "address"
        },
        {
          "internalType": "uint256",
          "name": "tokenId",
          "type": "uint256"
        }
      ],
      "name": "approve",
      "outputs": [],
      "stateMutability": "nonpayable",
      "type": "function"
    },
    {
      "inputs": [
        {
          "internalType": "address",
          "name": "owner",
          "type": "address"
        }
      ],
      "name": "balanceOf",
      "outputs": [
        {
          "internalType": "uint256",
          "name": "",
          "type": "uint256"
        }
      ],
      "stateMutability": "view",
      "type": "function"
    },
    {
      "inputs": [
        {
          "internalType": "uint256",
          "name": "tokenId",
          "type": "uint256"
        }
      ],
      "name": "getApproved",
      "outputs": [
        {
          "internalType": "address",
          "name": "",
          "type": "address"
        }
      ],
      "stateMutability": "view",
      "type": "function"
    },
    {
      "inputs": [],
      "name": "getTotalNFTsMintedSoFar",
      "outputs": [
        {
          "internalType": "uint256",
          "name": "",
          "type": "uint256"
        }
      ],
      "stateMutability": "view",
      "type": "function"
    },
    {
      "inputs": [
        {
          "internalType": "address",
          "name": "owner",
          "type": "address"
        },
        {
          "internalType": "address",
          "name": "operator",
          "type": "address"
        }
      ],
      "name": "isApprovedForAll",
      "outputs": [
        {
          "internalType": "bool",
          "name": "",
          "type": "bool"
        }
      ],
      "stateMutability": "view",
      "type": "function"
    },
    {
      "inputs": [],
      "name": "mintNFT",
      "outputs": [],
      "stateMutability": "nonpayable",
      "type": "function"
    },
    {
      "inputs": [],
      "name": "name",
      "outputs": [
        {
          "internalType": "string",
          "name": "",
          "type": "string"
        }
      ],
      "stateMutability": "view",
      "type": "function"
    },
    {
      "inputs": [
        {
          "internalType": "uint256",
          "name": "tokenId",
          "type": "uint256"
        }
      ],
      "name": "ownerOf",
      "outputs": [
        {
          "internalType": "address",
          "name": "",
          "type": "address"
        }
      ],
      "stateMutability": "view",
      "type": "function"
    },
    {
      "inputs": [
        {
          "internalType": "address",
          "name": "from",
          "type": "address"
        },
        {
          "internalType": "address",
          "name": "to",
          "type": "address"
        },
        {
          "internalType": "uint256",
          "name": "tokenId",
          "type": "uint256"
        }
      ],
      "name": "safeTransferFrom",
      "outputs": [],
      "stateMutability": "nonpayable",
      "type": "function"
    },
    {
      "inputs": [
        {
          "internalType": "address",
          "name": "from",
          "type": "address"
        },
        {
          "internalType": "address",
          "name": "to",
          "type": "address"
        },
        {
          "internalType": "uint256",
          "name": "tokenId",
          "type": "uint256"
        },
        {
          "internalType": "bytes",
          "name": "_data",
          "type": "bytes"
        }
      ],
      "name": "safeTransferFrom",
      "outputs": [],
      "stateMutability": "nonpayable",
      "type": "function"
    },
    {
      "inputs": [
        {
          "internalType": "address",
          "name": "operator",
          "type": "address"
        },
        {
          "internalType": "bool",
          "name": "approved",
          "type": "bool"
        }
      ],
      "name": "setApprovalForAll",
      "outputs": [],
      "stateMutability": "nonpayable",
      "type": "function"
    },
    {
      "inputs": [
        {
          "internalType": "bytes4",
          "name": "interfaceId",
          "type": "bytes4"
        }
      ],
      "name": "supportsInterface",
      "outputs": [
        {
          "internalType": "bool",
          "name": "",
          "type": "bool"
        }
      ],
      "stateMutability": "view",
      "type": "function"
    },
    {
      "inputs": [],
      "name": "symbol",
      "outputs": [
        {
          "internalType": "string",
          "name": "",
          "type": "string"
        }
      ],
      "stateMutability": "view",
      "type": "function"
    },
    {
      "inputs": [
        {
          "internalType": "uint256",
          "name": "tokenId",
          "type": "uint256"
        }
      ],
      "name": "tokenURI",
      "outputs": [
        {
          "internalType": "string",
          "name": "",
          "type": "string"
        }
      ],
      "stateMutability": "view",
      "type": "function"
    },
    {
      "inputs": [
        {
          "internalType": "address",
          "name": "from",
          "type": "address"
        },
        {
          "internalType": "address",
          "name": "to",
          "type": "address"
        },
        {
          "internalType": "uint256",
          "name": "tokenId",
          "type": "uint256"
        }
      ],
      "name": "transferFrom",
      "outputs": [],
      "stateMutability": "nonpayable",
      "type": "function"
    }
  ],
  "bytecode": "0x608060405260405180610160016040528061012f815260200162004f6d61012f9139600890805190602001906200003892919062000d8d565b506040518061040001604052806040518060400160405280600b81526020017f4775732047726973736f6d00000000000000000000000000000000000000000081525081526020016040518060400160405280600881526020017f456420576869746500000000000000000000000000000000000000000000000081525081526020016040518060400160405280601081526020017f526f67657220422e20436861666665650000000000000000000000000000000081525081526020016040518060400160405280600d81526020017f57616c6c7920536368697272610000000000000000000000000000000000000081525081526020016040518060400160405280600e81526020017f446f6e6e20462e20456973656c6500000000000000000000000000000000000081525081526020016040518060400160405280601181526020017f57616c7465722043756e6e696e6768616d00000000000000000000000000000081525081526020016040518060400160405280600c81526020017f4672616e6b20426f726d616e000000000000000000000000000000000000000081525081526020016040518060400160405280600a81526020017f4a696d204c6f76656c6c0000000000000000000000000000000000000000000081525081526020016040518060400160405280600e81526020017f57696c6c69616d20416e6465727300000000000000000000000000000000000081525081526020016040518060400160405280600e81526020017f4a616d6573204d6344697669747400000000000000000000000000000000000081525081526020016040518060400160405280600b81526020017f44617669642053636f747400000000000000000000000000000000000000000081525081526020016040518060400160405280601181526020017f527573747920536368776569636b61727400000000000000000000000000000081525081526020016040518060400160405280601281526020017f54686f6d617320502e2053746166666f7264000000000000000000000000000081525081526020016040518060400160405280600a81526020017f4a6f686e20596f756e670000000000000000000000000000000000000000000081525081526020016040518060400160405280600b81526020017f47656e65204365726e616e00000000000000000000000000000000000000000081525081526020016040518060400160405280600e81526020017f4e65696c2041726d7374726f6e6700000000000000000000000000000000000081525081526020016040518060400160405280600f81526020017f4d69636861656c20436f6c6c696e73000000000000000000000000000000000081525081526020016040518060400160405280600b81526020017f42757a7a20416c6472696e00000000000000000000000000000000000000000081525081526020016040518060400160405280600b81526020017f5065746520436f6e72616400000000000000000000000000000000000000000081525081526020016040518060400160405280601581526020017f5269636861726420462e20476f72646f6e204a722e000000000000000000000081525081526020016040518060400160405280600981526020017f416c616e204265616e000000000000000000000000000000000000000000000081525081526020016040518060400160405280600c81526020017f4a61636b2053776967657274000000000000000000000000000000000000000081525081526020016040518060400160405280600a81526020017f467265642048616973650000000000000000000000000000000000000000000081525081526020016040518060400160405280600c81526020017f416c616e2053686570617264000000000000000000000000000000000000000081525081526020016040518060400160405280600c81526020017f53747561727420526f6f7361000000000000000000000000000000000000000081525081526020016040518060400160405280600e81526020017f4564676172204d69746368656c6c00000000000000000000000000000000000081525081526020016040518060400160405280600d81526020017f416c6672656420576f7264656e0000000000000000000000000000000000000081525081526020016040518060400160405280600b81526020017f4a616d657320497277696e00000000000000000000000000000000000000000081525081526020016040518060400160405280600d81526020017f4b656e204d617474696e676c790000000000000000000000000000000000000081525081526020016040518060400160405280600c81526020017f436861726c65732044756b65000000000000000000000000000000000000000081525081526020016040518060400160405280600c81526020017f526f6e616c64204576616e73000000000000000000000000000000000000000081525081526020016040518060400160405280601081526020017f4861727269736f6e205363686d697474000000000000000000000000000000008152508152506009906020620007b592919062000e1e565b50604051806103e0016040528060405180610240016040528061021d815260200162006b5261021d9139815260200160405180610100016040528060dd815260200162006d6f60dd913981526020016040518060e0016040528060ac8152602001620057ca60ac91398152602001604051806103a001604052806103668152602001620054646103669139815260200160405180610120016040528060e5815260200162005fe460e5913981526020016040518061020001604052806101d58152602001620060c96101d5913981526020016040518061022001604052806101fc8152602001620047126101fc913981526020016040518061020001604052806101dd81526020016200629e6101dd913981526020016040518061024001604052806102208152602001620049e76102209139815260200160405180610100016040528060c781526020016200736a60c791398152602001604051806101a0016040528061017d81526020016200647b61017d91398152602001604051806101200160405280610100815260200162006a526101009139815260200160405180610120016040528060e7815260200162004da660e791398152602001604051806101c001604052806101828152602001620070bf61018291398152602001604051806101c001604052806101908152602001620065f86101909139815260200160405180610100016040528060d981526020016200490e60d99139815260200160405180610180016040528061014281526020016200691061014291398152602001604051806101c0016040528061018c815260200162005c0d61018c9139815260200160405180610160016040528061013b81526020016200509c61013b91398152602001604051806101c0016040528061019f815260200162004c0761019f91398152602001604051806101400160405280610115815260200162006faa61011591398152602001604051806101600160405280610135815260200162005ad861013591398152602001604051806101c001604052806101888152602001620067886101889139815260200160405180610120016040528060f781526020016200724160f79139815260200160405180610280016040528061024b815260200162005d9961024b913981526020016040518061018001604052806101578152602001620051d76101579139815260200160405180610160016040528061013681526020016200532e6101369139815260200160405180610180016040528061015e815260200162006e4c61015e9139815260200160405180610100016040528060e0815260200162004e8d60e091398152602001604051806102a001604052806102628152602001620058766102629139815260200160405180610100016040528060dc81526020016200743160dc9139815250600a90601f62000bdd92919062000e85565b5034801562000beb57600080fd5b506040518060400160405280601381526020017f41706f6c6c6f417374726f6e617574734e4654000000000000000000000000008152506040518060400160405280600681526020017f41504f4c4c4f0000000000000000000000000000000000000000000000000000815250816000908051906020019062000c7092919062000d8d565b50806001908051906020019062000c8992919062000d8d565b50505062000cbb604051806060016040528060328152602001620073386032913962000cc160201b62000ff21760201c565b620010a6565b62000d618160405160240162000cd8919062000fba565b6040516020818303038152906040527f41304fac000000000000000000000000000000000000000000000000000000007bffffffffffffffffffffffffffffffffffffffffffffffffffffffff19166020820180517bffffffffffffffffffffffffffffffffffffffffffffffffffffffff838183161783525050505062000d6460201b60201c565b50565b60008151905060006a636f6e736f6c652e6c6f679050602083016000808483855afa5050505050565b82805462000d9b9062001030565b90600052602060002090601f01602090048101928262000dbf576000855562000e0b565b82601f1062000dda57805160ff191683800117855562000e0b565b8280016001018555821562000e0b579182015b8281111562000e0a57825182559160200191906001019062000ded565b5b50905062000e1a919062000eec565b5090565b82805482825590600052602060002090810192821562000e72579160200282015b8281111562000e7157825182908051906020019062000e6092919062000d8d565b509160200191906001019062000e3f565b5b50905062000e81919062000f0b565b5090565b82805482825590600052602060002090810192821562000ed9579160200282015b8281111562000ed857825182908051906020019062000ec792919062000d8d565b509160200191906001019062000ea6565b5b50905062000ee8919062000f0b565b5090565b5b8082111562000f0757600081600090555060010162000eed565b5090565b5b8082111562000f2f576000818162000f25919062000f33565b5060010162000f0c565b5090565b50805462000f419062001030565b6000825580601f1062000f55575062000f76565b601f01602090049060005260206000209081019062000f75919062000eec565b5b50565b600062000f868262000fde565b62000f92818562000fe9565b935062000fa481856020860162000ffa565b62000faf8162001095565b840191505092915050565b6000602082019050818103600083015262000fd6818462000f79565b905092915050565b600081519050919050565b600082825260208201905092915050565b60005b838110156200101a57808201518184015260208101905062000ffd565b838111156200102a576000848401525b50505050565b600060028204905060018216806200104957607f821691505b6020821081141562001060576200105f62001066565b5b50919050565b7f4e487b7100000000000000000000000000000000000000000000000000000000600052602260045260246000fd5b6000601f19601f8301169050919050565b61365c80620010b66000396000f3fe608060405234801561001057600080fd5b50600436106100f55760003560e01c806342842e0e11610097578063a22cb46511610066578063a22cb46514610272578063b88d4fde1461028e578063c87b56dd146102aa578063e985e9c5146102da576100f5565b806342842e0e146101d85780636352211e146101f457806370a082311461022457806395d89b4114610254576100f5565b8063081812fc116100d3578063081812fc14610166578063095ea7b31461019657806314f710fe146101b257806323b872dd146101bc576100f5565b806301ffc9a7146100fa578063060475901461012a57806306fdde0314610148575b600080fd5b610114600480360381019061010f9190612252565b61030a565b60405161012191906128a3565b60405180910390f35b6101326103ec565b60405161013f9190612b3e565b60405180910390f35b6101506103fd565b60405161015d91906128be565b60405180910390f35b610180600480360381019061017b91906122a4565b61048f565b60405161018d9190612813565b60405180910390f35b6101b060048036038101906101ab9190612216565b610514565b005b6101ba61062c565b005b6101d660048036038101906101d19190612110565b6109ad565b005b6101f260048036038101906101ed9190612110565b610a0d565b005b61020e600480360381019061020991906122a4565b610a2d565b60405161021b9190612813565b60405180910390f35b61023e600480360381019061023991906120ab565b610adf565b60405161024b9190612b3e565b60405180910390f35b61025c610b97565b60405161026991906128be565b60405180910390f35b61028c600480360381019061028791906121da565b610c29565b005b6102a860048036038101906102a3919061215f565b610daa565b005b6102c460048036038101906102bf91906122a4565b610e0c565b6040516102d191906128be565b60405180910390f35b6102f460048036038101906102ef91906120d4565b610f5e565b60405161030191906128a3565b60405180910390f35b60007f80ac58cd000000000000000000000000000000000000000000000000000000007bffffffffffffffffffffffffffffffffffffffffffffffffffffffff1916827bffffffffffffffffffffffffffffffffffffffffffffffffffffffff191614806103d557507f5b5e139f000000000000000000000000000000000000000000000000000000007bffffffffffffffffffffffffffffffffffffffffffffffffffffffff1916827bffffffffffffffffffffffffffffffffffffffffffffffffffffffff1916145b806103e557506103e48261108b565b5b9050919050565b60006103f860076110f5565b905090565b60606000805461040c90612dd2565b80601f016020809104026020016040519081016040528092919081815260200182805461043890612dd2565b80156104855780601f1061045a57610100808354040283529160200191610485565b820191906000526020600020905b81548152906001019060200180831161046857829003601f168201915b5050505050905090565b600061049a82611103565b6104d9576040517f08c379a00000000000000000000000000000000000000000000000000000000081526004016104d090612a9e565b60405180910390fd5b6004600083815260200190815260200160002060009054906101000a900473ffffffffffffffffffffffffffffffffffffffff169050919050565b600061051f82610a2d565b90508073ffffffffffffffffffffffffffffffffffffffff168373ffffffffffffffffffffffffffffffffffffffff161415610590576040517f08c379a000000000000000000000000000000000000000000000000000000000815260040161058790612afe565b60405180910390fd5b8073ffffffffffffffffffffffffffffffffffffffff166105af61116f565b73ffffffffffffffffffffffffffffffffffffffff1614806105de57506105dd816105d861116f565b610f5e565b5b61061d576040517f08c379a0000000000000000000000000000000000000000000000000000000008152600401610614906129de565b60405180910390fd5b6106278383611177565b505050565b600061063860076110f5565b90506009805490508110610681576040517f08c379a0000000000000000000000000000000000000000000000000000000008152600401610678906129be565b60405180910390fd5b6000600982815481106106bd577f4e487b7100000000000000000000000000000000000000000000000000000000600052603260045260246000fd5b9060005260206000200180546106d290612dd2565b80601f01602080910402602001604051908101604052809291908181526020018280546106fe90612dd2565b801561074b5780601f106107205761010080835404028352916020019161074b565b820191906000526020600020905b81548152906001019060200180831161072e57829003601f168201915b505050505090506000600a838154811061078e577f4e487b7100000000000000000000000000000000000000000000000000000000600052603260045260246000fd5b9060005260206000200180546107a390612dd2565b80601f01602080910402602001604051908101604052809291908181526020018280546107cf90612dd2565b801561081c5780601f106107f15761010080835404028352916020019161081c565b820191906000526020600020905b8154815290600101906020018083116107ff57829003601f168201915b505050505090506000600883604051602001610839929190612765565b60405160208183030381529060405290506000610880848461085a85611230565b60405160200161086c93929190612794565b604051602081830303815290604052611230565b905060008160405160200161089591906127f1565b60405160208183030381529060405290506108e46040518060400160405280601581526020017f0a2d2d2d2d2d2d2d2d2d2d2d2d2d2d2d2d2d2d2d2d0000000000000000000000815250610ff2565b6108ed81610ff2565b61092b6040518060400160405280601581526020017f2d2d2d2d2d2d2d2d2d2d2d2d2d2d2d2d2d2d2d2d0a0000000000000000000000815250610ff2565b61093533876113ee565b61093f868261140c565b6109626040518060600160405280602581526020016135c2602591398733611480565b61096c600761151f565b7f1c05098ed1ff38e6238d2b1b04b2c7977d4c94ce651bda6473f9dba8dbf01da0338760405161099d92919061287a565b60405180910390a1505050505050565b6109be6109b861116f565b82611535565b6109fd576040517f08c379a00000000000000000000000000000000000000000000000000000000081526004016109f490612b1e565b60405180910390fd5b610a08838383611613565b505050565b610a2883838360405180602001604052806000815250610daa565b505050565b6000806002600084815260200190815260200160002060009054906101000a900473ffffffffffffffffffffffffffffffffffffffff169050600073ffffffffffffffffffffffffffffffffffffffff168173ffffffffffffffffffffffffffffffffffffffff161415610ad6576040517f08c379a0000000000000000000000000000000000000000000000000000000008152600401610acd90612a1e565b60405180910390fd5b80915050919050565b60008073ffffffffffffffffffffffffffffffffffffffff168273ffffffffffffffffffffffffffffffffffffffff161415610b50576040517f08c379a0000000000000000000000000000000000000000000000000000000008152600401610b47906129fe565b60405180910390fd5b600360008373ffffffffffffffffffffffffffffffffffffffff1673ffffffffffffffffffffffffffffffffffffffff168152602001908152602001600020549050919050565b606060018054610ba690612dd2565b80601f0160208091040260200160405190810160405280929190818152602001828054610bd290612dd2565b8015610c1f5780601f10610bf457610100808354040283529160200191610c1f565b820191906000526020600020905b815481529060010190602001808311610c0257829003601f168201915b5050505050905090565b610c3161116f565b73ffffffffffffffffffffffffffffffffffffffff168273ffffffffffffffffffffffffffffffffffffffff161415610c9f576040517f08c379a0000000000000000000000000000000000000000000000000000000008152600401610c969061297e565b60405180910390fd5b8060056000610cac61116f565b73ffffffffffffffffffffffffffffffffffffffff1673ffffffffffffffffffffffffffffffffffffffff16815260200190815260200160002060008473ffffffffffffffffffffffffffffffffffffffff1673ffffffffffffffffffffffffffffffffffffffff16815260200190815260200160002060006101000a81548160ff0219169083151502179055508173ffffffffffffffffffffffffffffffffffffffff16610d5961116f565b73ffffffffffffffffffffffffffffffffffffffff167f17307eab39ab6107e8899845ad3d59bd9653f200f220920489ca2b5937696c3183604051610d9e91906128a3565b60405180910390a35050565b610dbb610db561116f565b83611535565b610dfa576040517f08c379a0000000000000000000000000000000000000000000000000000000008152600401610df190612b1e565b60405180910390fd5b610e068484848461186f565b50505050565b6060610e1782611103565b610e56576040517f08c379a0000000000000000000000000000000000000000000000000000000008152600401610e4d90612a7e565b60405180910390fd5b6000600660008481526020019081526020016000208054610e7690612dd2565b80601f0160208091040260200160405190810160405280929190818152602001828054610ea290612dd2565b8015610eef5780601f10610ec457610100808354040283529160200191610eef565b820191906000526020600020905b815481529060010190602001808311610ed257829003601f168201915b505050505090506000610f006118cb565b9050600081511415610f16578192505050610f59565b600082511115610f4b578082604051602001610f33929190612741565b60405160208183030381529060405292505050610f59565b610f54846118e2565b925050505b919050565b6000600560008473ffffffffffffffffffffffffffffffffffffffff1673ffffffffffffffffffffffffffffffffffffffff16815260200190815260200160002060008373ffffffffffffffffffffffffffffffffffffffff1673ffffffffffffffffffffffffffffffffffffffff16815260200190815260200160002060009054906101000a900460ff16905092915050565b6110888160405160240161100691906128be565b6040516020818303038152906040527f41304fac000000000000000000000000000000000000000000000000000000007bffffffffffffffffffffffffffffffffffffffffffffffffffffffff19166020820180517bffffffffffffffffffffffffffffffffffffffffffffffffffffffff8381831617835250505050611989565b50565b60007f01ffc9a7000000000000000000000000000000000000000000000000000000007bffffffffffffffffffffffffffffffffffffffffffffffffffffffff1916827bffffffffffffffffffffffffffffffffffffffffffffffffffffffff1916149050919050565b600081600001549050919050565b60008073ffffffffffffffffffffffffffffffffffffffff166002600084815260200190815260200160002060009054906101000a900473ffffffffffffffffffffffffffffffffffffffff1673ffffffffffffffffffffffffffffffffffffffff1614159050919050565b600033905090565b816004600083815260200190815260200160002060006101000a81548173ffffffffffffffffffffffffffffffffffffffff021916908373ffffffffffffffffffffffffffffffffffffffff160217905550808273ffffffffffffffffffffffffffffffffffffffff166111ea83610a2d565b73ffffffffffffffffffffffffffffffffffffffff167f8c5be1e5ebec7d5bd14f71427d1e84f3dd0314c0f7b2291e5b200ac8c7c3b92560405160405180910390a45050565b6060600082519050600081141561125957604051806020016040528060008152509150506113e9565b6000600360028361126a9190612c07565b6112749190612c5d565b60046112809190612c8e565b905060006020826112919190612c07565b67ffffffffffffffff8111156112d0577f4e487b7100000000000000000000000000000000000000000000000000000000600052604160045260246000fd5b6040519080825280601f01601f1916602001820160405280156113025781602001600182028036833780820191505090505b50905060006040518060600160405280604081526020016135e7604091399050600181016020830160005b868110156113a65760038101905062ffffff818a015116603f8160121c168401518060081b905060ff603f83600c1c1686015116810190508060081b905060ff603f8360061c1686015116810190508060081b905060ff603f831686015116810190508060e01b9050808452600484019350505061132d565b5060038606600181146113c057600281146113d0576113db565b613d3d60f01b60028303526113db565b603d60f81b60018303525b508484525050819450505050505b919050565b6114088282604051806020016040528060008152506119b2565b5050565b61141582611103565b611454576040517f08c379a000000000000000000000000000000000000000000000000000000000815260040161144b90612a3e565b60405180910390fd5b8060066000848152602001908152602001600020908051906020019061147b929190611f37565b505050565b61151a838383604051602401611498939291906128e0565b6040516020818303038152906040527fe3849f79000000000000000000000000000000000000000000000000000000007bffffffffffffffffffffffffffffffffffffffffffffffffffffffff19166020820180517bffffffffffffffffffffffffffffffffffffffffffffffffffffffff8381831617835250505050611989565b505050565b6001816000016000828254019250508190555050565b600061154082611103565b61157f576040517f08c379a00000000000000000000000000000000000000000000000000000000081526004016115769061299e565b60405180910390fd5b600061158a83610a2d565b90508073ffffffffffffffffffffffffffffffffffffffff168473ffffffffffffffffffffffffffffffffffffffff1614806115f957508373ffffffffffffffffffffffffffffffffffffffff166115e18461048f565b73ffffffffffffffffffffffffffffffffffffffff16145b8061160a57506116098185610f5e565b5b91505092915050565b8273ffffffffffffffffffffffffffffffffffffffff1661163382610a2d565b73ffffffffffffffffffffffffffffffffffffffff1614611689576040517f08c379a000000000000000000000000000000000000000000000000000000000815260040161168090612abe565b60405180910390fd5b600073ffffffffffffffffffffffffffffffffffffffff168273ffffffffffffffffffffffffffffffffffffffff1614156116f9576040517f08c379a00000000000000000000000000000000000000000000000000000000081526004016116f09061295e565b60405180910390fd5b611704838383611a0d565b61170f600082611177565b6001600360008573ffffffffffffffffffffffffffffffffffffffff1673ffffffffffffffffffffffffffffffffffffffff168152602001908152602001600020600082825461175f9190612ce8565b925050819055506001600360008473ffffffffffffffffffffffffffffffffffffffff1673ffffffffffffffffffffffffffffffffffffffff16815260200190815260200160002060008282546117b69190612c07565b92505081905550816002600083815260200190815260200160002060006101000a81548173ffffffffffffffffffffffffffffffffffffffff021916908373ffffffffffffffffffffffffffffffffffffffff160217905550808273ffffffffffffffffffffffffffffffffffffffff168473ffffffffffffffffffffffffffffffffffffffff167fddf252ad1be2c89b69c2b068fc378daa952ba7f163c4a11628f55a4df523b3ef60405160405180910390a4505050565b61187a848484611613565b61188684848484611a12565b6118c5576040517f08c379a00000000000000000000000000000000000000000000000000000000081526004016118bc9061291e565b60405180910390fd5b50505050565b606060405180602001604052806000815250905090565b60606118ed82611103565b61192c576040517f08c379a000000000000000000000000000000000000000000000000000000000815260040161192390612ade565b60405180910390fd5b60006119366118cb565b905060008151116119565760405180602001604052806000815250611981565b8061196084611ba9565b604051602001611971929190612741565b6040516020818303038152906040525b915050919050565b60008151905060006a636f6e736f6c652e6c6f679050602083016000808483855afa5050505050565b6119bc8383611d56565b6119c96000848484611a12565b611a08576040517f08c379a00000000000000000000000000000000000000000000000000000000081526004016119ff9061291e565b60405180910390fd5b505050565b505050565b6000611a338473ffffffffffffffffffffffffffffffffffffffff16611f24565b15611b9c578373ffffffffffffffffffffffffffffffffffffffff1663150b7a02611a5c61116f565b8786866040518563ffffffff1660e01b8152600401611a7e949392919061282e565b602060405180830381600087803b158015611a9857600080fd5b505af1925050508015611ac957506040513d601f19601f82011682018060405250810190611ac6919061227b565b60015b611b4c573d8060008114611af9576040519150601f19603f3d011682016040523d82523d6000602084013e611afe565b606091505b50600081511415611b44576040517f08c379a0000000000000000000000000000000000000000000000000000000008152600401611b3b9061291e565b60405180910390fd5b805181602001fd5b63150b7a0260e01b7bffffffffffffffffffffffffffffffffffffffffffffffffffffffff1916817bffffffffffffffffffffffffffffffffffffffffffffffffffffffff191614915050611ba1565b600190505b949350505050565b60606000821415611bf1576040518060400160405280600181526020017f30000000000000000000000000000000000000000000000000000000000000008152509050611d51565b600082905060005b60008214611c23578080611c0c90612e35565b915050600a82611c1c9190612c5d565b9150611bf9565b60008167ffffffffffffffff811115611c65577f4e487b7100000000000000000000000000000000000000000000000000000000600052604160045260246000fd5b6040519080825280601f01601f191660200182016040528015611c975781602001600182028036833780820191505090505b5090505b60008514611d4a57600182611cb09190612ce8565b9150600a85611cbf9190612e7e565b6030611ccb9190612c07565b60f81b818381518110611d07577f4e487b7100000000000000000000000000000000000000000000000000000000600052603260045260246000fd5b60200101907effffffffffffffffffffffffffffffffffffffffffffffffffffffffffffff1916908160001a905350600a85611d439190612c5d565b9450611c9b565b8093505050505b919050565b600073ffffffffffffffffffffffffffffffffffffffff168273ffffffffffffffffffffffffffffffffffffffff161415611dc6576040517f08c379a0000000000000000000000000000000000000000000000000000000008152600401611dbd90612a5e565b60405180910390fd5b611dcf81611103565b15611e0f576040517f08c379a0000000000000000000000000000000000000000000000000000000008152600401611e069061293e565b60405180910390fd5b611e1b60008383611a0d565b6001600360008473ffffffffffffffffffffffffffffffffffffffff1673ffffffffffffffffffffffffffffffffffffffff1681526020019081526020016000206000828254611e6b9190612c07565b92505081905550816002600083815260200190815260200160002060006101000a81548173ffffffffffffffffffffffffffffffffffffffff021916908373ffffffffffffffffffffffffffffffffffffffff160217905550808273ffffffffffffffffffffffffffffffffffffffff16600073ffffffffffffffffffffffffffffffffffffffff167fddf252ad1be2c89b69c2b068fc378daa952ba7f163c4a11628f55a4df523b3ef60405160405180910390a45050565b600080823b905060008111915050919050565b828054611f4390612dd2565b90600052602060002090601f016020900481019282611f655760008555611fac565b82601f10611f7e57805160ff1916838001178555611fac565b82800160010185558215611fac579182015b82811115611fab578251825591602001919060010190611f90565b5b509050611fb99190611fbd565b5090565b5b80821115611fd6576000816000905550600101611fbe565b5090565b6000611fed611fe884612b7e565b612b59565b90508281526020810184848401111561200557600080fd5b612010848285612d90565b509392505050565b60008135905061202781613565565b92915050565b60008135905061203c8161357c565b92915050565b60008135905061205181613593565b92915050565b60008151905061206681613593565b92915050565b600082601f83011261207d57600080fd5b813561208d848260208601611fda565b91505092915050565b6000813590506120a5816135aa565b92915050565b6000602082840312156120bd57600080fd5b60006120cb84828501612018565b91505092915050565b600080604083850312156120e757600080fd5b60006120f585828601612018565b925050602061210685828601612018565b9150509250929050565b60008060006060848603121561212557600080fd5b600061213386828701612018565b935050602061214486828701612018565b925050604061215586828701612096565b9150509250925092565b6000806000806080858703121561217557600080fd5b600061218387828801612018565b945050602061219487828801612018565b93505060406121a587828801612096565b925050606085013567ffffffffffffffff8111156121c257600080fd5b6121ce8782880161206c565b91505092959194509250565b600080604083850312156121ed57600080fd5b60006121fb85828601612018565b925050602061220c8582860161202d565b9150509250929050565b6000806040838503121561222957600080fd5b600061223785828601612018565b925050602061224885828601612096565b9150509250929050565b60006020828403121561226457600080fd5b600061227284828501612042565b91505092915050565b60006020828403121561228d57600080fd5b600061229b84828501612057565b91505092915050565b6000602082840312156122b657600080fd5b60006122c484828501612096565b91505092915050565b6122d681612d1c565b82525050565b6122e581612d2e565b82525050565b60006122f682612bc4565b6123008185612bda565b9350612310818560208601612d9f565b61231981612f6b565b840191505092915050565b600061232f82612bcf565b6123398185612beb565b9350612349818560208601612d9f565b61235281612f6b565b840191505092915050565b600061236882612bcf565b6123728185612bfc565b9350612382818560208601612d9f565b80840191505092915050565b6000815461239b81612dd2565b6123a58186612bfc565b945060018216600081146123c057600181146123d157612404565b60ff19831686528186019350612404565b6123da85612baf565b60005b838110156123fc578154818901526001820191506020810190506123dd565b838801955050505b50505092915050565b600061241a601383612bfc565b915061242582612f7c565b601382019050919050565b600061243d603283612beb565b915061244882612fa5565b604082019050919050565b6000612460601c83612beb565b915061246b82612ff4565b602082019050919050565b6000612483602483612beb565b915061248e8261301d565b604082019050919050565b60006124a6601983612beb565b91506124b18261306c565b602082019050919050565b60006124c9602c83612beb565b91506124d482613095565b604082019050919050565b60006124ec600d83612bfc565b91506124f7826130e4565b600d82019050919050565b600061250f602c83612beb565b915061251a8261310d565b604082019050919050565b6000612532603883612beb565b915061253d8261315c565b604082019050919050565b6000612555602a83612beb565b9150612560826131ab565b604082019050919050565b6000612578602983612beb565b9150612583826131fa565b604082019050919050565b600061259b602e83612beb565b91506125a682613249565b604082019050919050565b60006125be600283612bfc565b91506125c982613298565b600282019050919050565b60006125e1602083612beb565b91506125ec826132c1565b602082019050919050565b6000612604603183612beb565b915061260f826132ea565b604082019050919050565b6000612627602c83612beb565b915061263282613339565b604082019050919050565b600061264a602983612beb565b915061265582613388565b604082019050919050565b600061266d602f83612beb565b9150612678826133d7565b604082019050919050565b6000612690602783612bfc565b915061269b82613426565b602782019050919050565b60006126b3600a83612bfc565b91506126be82613475565b600a82019050919050565b60006126d6602183612beb565b91506126e18261349e565b604082019050919050565b60006126f9601d83612bfc565b9150612704826134ed565b601d82019050919050565b600061271c603183612beb565b915061272782613516565b604082019050919050565b61273b81612d86565b82525050565b600061274d828561235d565b9150612759828461235d565b91508190509392505050565b6000612771828561238e565b915061277d828461235d565b9150612788826124df565b91508190509392505050565b600061279f826126a6565b91506127ab828661235d565b91506127b68261240d565b91506127c2828561235d565b91506127cd82612683565b91506127d9828461235d565b91506127e4826125b1565b9150819050949350505050565b60006127fc826126ec565b9150612808828461235d565b915081905092915050565b600060208201905061282860008301846122cd565b92915050565b600060808201905061284360008301876122cd565b61285060208301866122cd565b61285d6040830185612732565b818103606083015261286f81846122eb565b905095945050505050565b600060408201905061288f60008301856122cd565b61289c6020830184612732565b9392505050565b60006020820190506128b860008301846122dc565b92915050565b600060208201905081810360008301526128d88184612324565b905092915050565b600060608201905081810360008301526128fa8186612324565b90506129096020830185612732565b61291660408301846122cd565b949350505050565b6000602082019050818103600083015261293781612430565b9050919050565b6000602082019050818103600083015261295781612453565b9050919050565b6000602082019050818103600083015261297781612476565b9050919050565b6000602082019050818103600083015261299781612499565b9050919050565b600060208201905081810360008301526129b7816124bc565b9050919050565b600060208201905081810360008301526129d781612502565b9050919050565b600060208201905081810360008301526129f781612525565b9050919050565b60006020820190508181036000830152612a1781612548565b9050919050565b60006020820190508181036000830152612a378161256b565b9050919050565b60006020820190508181036000830152612a578161258e565b9050919050565b60006020820190508181036000830152612a77816125d4565b9050919050565b60006020820190508181036000830152612a97816125f7565b9050919050565b60006020820190508181036000830152612ab78161261a565b9050919050565b60006020820190508181036000830152612ad78161263d565b9050919050565b60006020820190508181036000830152612af781612660565b9050919050565b60006020820190508181036000830152612b17816126c9565b9050919050565b60006020820190508181036000830152612b378161270f565b9050919050565b6000602082019050612b536000830184612732565b92915050565b6000612b63612b74565b9050612b6f8282612e04565b919050565b6000604051905090565b600067ffffffffffffffff821115612b9957612b98612f3c565b5b612ba282612f6b565b9050602081019050919050565b60008190508160005260206000209050919050565b600081519050919050565b600081519050919050565b600082825260208201905092915050565b600082825260208201905092915050565b600081905092915050565b6000612c1282612d86565b9150612c1d83612d86565b9250827fffffffffffffffffffffffffffffffffffffffffffffffffffffffffffffffff03821115612c5257612c51612eaf565b5b828201905092915050565b6000612c6882612d86565b9150612c7383612d86565b925082612c8357612c82612ede565b5b828204905092915050565b6000612c9982612d86565b9150612ca483612d86565b9250817fffffffffffffffffffffffffffffffffffffffffffffffffffffffffffffffff0483118215151615612cdd57612cdc612eaf565b5b828202905092915050565b6000612cf382612d86565b9150612cfe83612d86565b925082821015612d1157612d10612eaf565b5b828203905092915050565b6000612d2782612d66565b9050919050565b60008115159050919050565b60007fffffffff0000000000000000000000000000000000000000000000000000000082169050919050565b600073ffffffffffffffffffffffffffffffffffffffff82169050919050565b6000819050919050565b82818337600083830152505050565b60005b83811015612dbd578082015181840152602081019050612da2565b83811115612dcc576000848401525b50505050565b60006002820490506001821680612dea57607f821691505b60208210811415612dfe57612dfd612f0d565b5b50919050565b612e0d82612f6b565b810181811067ffffffffffffffff82111715612e2c57612e2b612f3c565b5b80604052505050565b6000612e4082612d86565b91507fffffffffffffffffffffffffffffffffffffffffffffffffffffffffffffffff821415612e7357612e72612eaf565b5b600182019050919050565b6000612e8982612d86565b9150612e9483612d86565b925082612ea457612ea3612ede565b5b828206905092915050565b7f4e487b7100000000000000000000000000000000000000000000000000000000600052601160045260246000fd5b7f4e487b7100000000000000000000000000000000000000000000000000000000600052601260045260246000fd5b7f4e487b7100000000000000000000000000000000000000000000000000000000600052602260045260246000fd5b7f4e487b7100000000000000000000000000000000000000000000000000000000600052604160045260246000fd5b6000601f19601f8301169050919050565b7f222c20226465736372697074696f6e223a202200000000000000000000000000600082015250565b7f4552433732313a207472616e7366657220746f206e6f6e20455243373231526560008201527f63656976657220696d706c656d656e7465720000000000000000000000000000602082015250565b7f4552433732313a20746f6b656e20616c7265616479206d696e74656400000000600082015250565b7f4552433732313a207472616e7366657220746f20746865207a65726f2061646460008201527f7265737300000000000000000000000000000000000000000000000000000000602082015250565b7f4552433732313a20617070726f766520746f2063616c6c657200000000000000600082015250565b7f4552433732313a206f70657261746f7220717565727920666f72206e6f6e657860008201527f697374656e7420746f6b656e0000000000000000000000000000000000000000602082015250565b7f3c2f746578743e3c2f7376673e00000000000000000000000000000000000000600082015250565b7f416c6c20617661696c61626c65204e46542773206861766520616c726561647960008201527f206265656e206d696e7465640000000000000000000000000000000000000000602082015250565b7f4552433732313a20617070726f76652063616c6c6572206973206e6f74206f7760008201527f6e6572206e6f7220617070726f76656420666f7220616c6c0000000000000000602082015250565b7f4552433732313a2062616c616e636520717565727920666f7220746865207a6560008201527f726f206164647265737300000000000000000000000000000000000000000000602082015250565b7f4552433732313a206f776e657220717565727920666f72206e6f6e657869737460008201527f656e7420746f6b656e0000000000000000000000000000000000000000000000602082015250565b7f45524337323155524953746f726167653a2055524920736574206f66206e6f6e60008201527f6578697374656e7420746f6b656e000000000000000000000000000000000000602082015250565b7f227d000000000000000000000000000000000000000000000000000000000000600082015250565b7f4552433732313a206d696e7420746f20746865207a65726f2061646472657373600082015250565b7f45524337323155524953746f726167653a2055524920717565727920666f722060008201527f6e6f6e6578697374656e7420746f6b656e000000000000000000000000000000602082015250565b7f4552433732313a20617070726f76656420717565727920666f72206e6f6e657860008201527f697374656e7420746f6b656e0000000000000000000000000000000000000000602082015250565b7f4552433732313a207472616e73666572206f6620746f6b656e2074686174206960008201527f73206e6f74206f776e0000000000000000000000000000000000000000000000602082015250565b7f4552433732314d657461646174613a2055524920717565727920666f72206e6f60008201527f6e6578697374656e7420746f6b656e0000000000000000000000000000000000602082015250565b7f222c2022696d616765223a2022646174613a696d6167652f7376672b786d6c3b60008201527f6261736536342c00000000000000000000000000000000000000000000000000602082015250565b7f7b226e616d65223a202200000000000000000000000000000000000000000000600082015250565b7f4552433732313a20617070726f76616c20746f2063757272656e74206f776e6560008201527f7200000000000000000000000000000000000000000000000000000000000000602082015250565b7f646174613a6170706c69636174696f6e2f6a736f6e3b6261736536342c000000600082015250565b7f4552433732313a207472616e736665722063616c6c6572206973206e6f74206f60008201527f776e6572206e6f7220617070726f766564000000000000000000000000000000602082015250565b61356e81612d1c565b811461357957600080fd5b50565b61358581612d2e565b811461359057600080fd5b50565b61359c81612d3a565b81146135a757600080fd5b50565b6135b381612d86565b81146135be57600080fd5b5056fe416e204e465420772f20494420257320686173206265656e206d696e74656420746f2025734142434445464748494a4b4c4d4e4f505152535455565758595a6162636465666768696a6b6c6d6e6f707172737475767778797a303132333435363738392b2fa2646970667358221220d1a92223ebeea2fff98e4062c0f140d75751f5d5798e4dcaa737c60e935ca6a764736f6c634300080400334672616e6b2046726564657269636b20426f726d616e2049492028626f726e204d617263682031342c2031393238292069732061207265746972656420556e69746564205374617465732041697220466f7263652028555341462920636f6c6f6e656c2c206165726f6e6175746963616c20656e67696e6565722c20746573742070696c6f742c20627573696e6573736d616e2c2072616e636865722c20616e64204e41534120617374726f6e6175742e204865207761732074686520636f6d6d616e646572206f662041706f6c6c6f20382c20746865206669727374206d697373696f6e20746f20666c792061726f756e6420746865204d6f6f6e2c20616e6420746f676574686572207769746820637265776d61746573204a696d204c6f76656c6c20616e642042696c6c20416e646572732c20626563616d6520746865206669727374206f662032342068756d616e7320746f20646f20736f2c20666f722077686963682068652077617320617761726465642074686520436f6e6772657373696f6e616c205370616365204d6564616c206f6620486f6e6f722e204173206f6620323032312c20686520697320746865206f6c64657374206c6976696e6720666f726d657220416d65726963616e20617374726f6e6175742c20656c6576656e2064617973206f6c646572207468616e204c6f76656c6c2e4e65696c20416c64656e2041726d7374726f6e67202841756775737420352c2031393330202d204175677573742032352c2032303132292077617320616e20416d65726963616e20617374726f6e61757420616e64206165726f6e6175746963616c20656e67696e6565722c20616e642074686520666972737420706572736f6e20746f2077616c6b206f6e20746865204d6f6f6e2e2048652077617320616c736f2061206e6176616c2061766961746f722c20746573742070696c6f742c20616e6420756e69766572736974792070726f666573736f722e57696c6c69616d20416c69736f6e20416e646572732028626f726e204f63746f6265722031372c2031393333292069732061207265746972656420556e69746564205374617465732041697220466f726365206d616a6f722067656e6572616c2c20666f726d657220656c656374726963616c20656e67696e6565722c206e75636c65617220656e67696e6565722c204e41534120617374726f6e6175742c20616e6420627573696e6573736d616e2e20496e20446563656d62657220313936382c20617320612063726577206d656d626572206f662041706f6c6c6f20382c20686520776173206f6e65206f66207468652066697273742074687265652070656f706c6520746f206c65617665206c6f77204561727468206f7262697420616e642074726176656c20746f20746865204d6f6f6e2e20416c6f6e6720776974682066656c6c6f7720617374726f6e61757473204672616e6b20426f726d616e20616e64204a696d204c6f76656c6c2c20416e6465727320636972636c656420746865204d6f6f6e2074656e2074696d65732c20616e642062726f616463617374206c69766520696d6167657320616e6420636f6d6d656e74617279206261636b20746f2045617274682e20447572696e67206f6e65206f6620746865206d697373696f6e2773206c756e6172206f72626974732068652070686f746f67726170686564207468652069636f6e696320696d616765204561727468726973652e52696368617264204672616e63697320476f72646f6e204a722e20284f63746f62657220352c2031393239202d204e6f76656d62657220362c2032303137292077617320616e20416d65726963616e206e6176616c206f66666963657220616e642061766961746f722c20746573742070696c6f742c20616e64204e41534120617374726f6e6175742c20616e6420616e20416d65726963616e20666f6f7462616c6c206578656375746976652e20486520776173206f6e65206f662032342070656f706c6520746f206861766520666c6f776e20746f20746865204d6f6f6e2c2061732074686520636f6d6d616e64206d6f64756c652070696c6f74206f662074686520313936392041706f6c6c6f203132206d697373696f6e207768696368206f72626974656420746865204d6f6f6e2034352074696d65732e5b315d205072696f7220746f20686973206c756e617220666c6967687420476f72646f6e2068616420666c6f776e20696e207370616365206173207468652070696c6f74206f662074686520313936362047656d696e69203131206d697373696f6e2e54686f6d61732050617474656e2053746166666f72642028626f726e2053657074656d6265722031372c20313933302920697320616e20416d65726963616e20666f726d65722041697220466f726365206f6666696365722c20746573742070696c6f742c20616e64204e41534120617374726f6e6175742c20616e64206f6e65206f662032342070656f706c652077686f20666c657720746f20746865204d6f6f6e2e20486520616c736f20736572766564206173204368696566206f662074686520417374726f6e617574204f66666963652066726f6d203139363920746f20313937312e54686f6d6173204b656e6e657468204d617474696e676c792049492028626f726e204d617263682031372c20313933362920697320616e20416d65726963616e20666f726d65722061766961746f722c206165726f6e6175746963616c20656e67696e6565722c20746573742070696c6f742c20726561722061646d6972616c20696e2074686520556e6974656420537461746573204e61767920616e6420617374726f6e6175742077686f20666c6577206f6e207468652041706f6c6c6f2031362c205354532d3420616e64205354532d35312d43206d697373696f6e732e3c73766720786d6c6e733d27687474703a2f2f7777772e77332e6f72672f323030302f73766727207072657365727665417370656374526174696f3d27784d696e594d696e206d656574272076696577426f783d273020302033353020333530273e3c7374796c653e2e62617365207b2066696c6c3a2077686974653b20666f6e742d66616d696c793a2073657269663b20666f6e742d73697a653a20323470783b207d3c2f7374796c653e3c726563742077696474683d273130302527206865696768743d2731303025272066696c6c3d27626c61636b27202f3e3c7465787420783d273530252720793d273530252720636c6173733d27626173652720646f6d696e616e742d626173656c696e653d276d6964646c652720746578742d616e63686f723d276d6964646c65273e436861726c65732027506574652720436f6e726164204a722e20284a756e6520322c2031393330202d204a756c7920382c2031393939292077617320616e20416d65726963616e204e41534120617374726f6e6175742c206165726f6e6175746963616c20656e67696e6565722c206e6176616c206f66666963657220616e642061766961746f722c20616e6420746573742070696c6f742c20616e6420636f6d6d616e646564207468652041706f6c6c6f203132207370616365206d697373696f6e2c206f6e20776869636820686520626563616d652074686520746869726420706572736f6e20746f2077616c6b206f6e20746865204d6f6f6e2e20436f6e726164207761732073656c656374656420696e204e4153412773207365636f6e6420617374726f6e61757420636c61737320696e20313936322e4564676172204465616e204d69746368656c6c202853657074656d6265722031372c2031393330202d20466562727561727920342c20323031362920776173206120556e6974656420537461746573204e617679206f66666963657220616e642061766961746f722c20746573742070696c6f742c206165726f6e6175746963616c20656e67696e6565722c2075666f6c6f6769737420616e64204e41534120617374726f6e6175742e20417320746865204c756e6172204d6f64756c652050696c6f74206f662041706f6c6c6f2031342c206865207370656e74206e696e6520686f75727320776f726b696e67206f6e20746865206c756e6172207375726661636520696e2074686520467261204d6175726f20486967686c616e647320726567696f6e2c206d616b696e672068696d2074686520736978746820706572736f6e20746f2077616c6b206f6e20746865204d6f6f6e2e436f6c6f6e656c20416c66726564204d657272696c6c20576f7264656e20555341462028466562727561727920372c2031393332202d204d617263682031382c2032303230292077617320616e20416d65726963616e20746573742070696c6f742c20656e67696e65657220616e64204e41534120617374726f6e6175742077686f207761732074686520636f6d6d616e64206d6f64756c652070696c6f7420666f72207468652041706f6c6c6f203135206c756e6172206d697373696f6e20696e20313937312e204f6e65206f66206f6e6c792032342070656f706c6520746f206861766520666c6f776e20746f20746865204d6f6f6e2c206865206f7262697465642069742037342074696d657320696e2074686520636f6d6d616e64206d6f64756c652028434d2920456e646561766f75722e57616c746572204d617274792053636869727261204a722e20284d617263682031322c2031393233202d204d617920332c2032303037292077617320616e20416d65726963616e206e6176616c2061766961746f722c20746573742070696c6f742c20616e64204e41534120617374726f6e6175742e20496e20313935392c20686520626563616d65206f6e65206f6620746865206f726967696e616c20736576656e20617374726f6e617574732063686f73656e20666f722050726f6a656374204d6572637572792c207768696368207761732074686520556e697465642053746174657327206669727374206566666f727420746f207075742068756d616e206265696e677320696e746f2073706163652e204f6e204f63746f62657220332c20313936322c20686520666c657720746865207369782d6f726269742c206e696e652d686f75722c204d6572637572792d41746c61732038206d697373696f6e2c20696e20612073706163656372616674206865206e69636b6e616d6564205369676d6120372e204174207468652074696d65206f6620686973206d697373696f6e20696e205369676d6120372c205363686972726120626563616d652074686520666966746820416d65726963616e20616e64206e696e74682068756d616e20746f2074726176656c20696e746f2073706163652e20496e207468652074776f2d6d616e2047656d696e692070726f6772616d2c206865206163686965766564207468652066697273742073706163652072656e64657a766f75732c2073746174696f6e2d6b656570696e67206869732047656d696e6920364120737061636563726166742077697468696e203120666f6f742028333020636d29206f6620746865207369737465722047656d696e692037207370616365637261667420696e20446563656d62657220313936352e20496e204f63746f62657220313936382c20686520636f6d6d616e6465642041706f6c6c6f20372c20616e2031312d646179206c6f77204561727468206f72626974207368616b65646f776e2074657374206f66207468652074687265652d6d616e2041706f6c6c6f20436f6d6d616e642f53657276696365204d6f64756c6520616e642074686520666972737420637265776564206c61756e636820666f72207468652041706f6c6c6f2070726f6772616d2e526f6765722042727563652043686166666565202846656272756172792031352c2031393335202d204a616e756172792032372c2031393637292077617320616e20416d65726963616e206e6176616c206f6666696365722c2061766961746f722c20616e64206165726f6e6175746963616c20656e67696e6565722077686f207761732061204e41534120617374726f6e61757420696e207468652041706f6c6c6f2070726f6772616d2e436861726c6573204d6f73732044756b65204a722e2028626f726e204f63746f62657220332c20313933352920697320616e20416d65726963616e20666f726d657220617374726f6e6175742c20556e69746564205374617465732041697220466f72636520285553414629206f66666963657220616e6420746573742070696c6f742e204173206c756e6172206d6f64756c652070696c6f74206f662041706f6c6c6f20313620696e20313937322c20686520626563616d65207468652074656e746820616e6420796f756e6765737420706572736f6e20746f2077616c6b206f6e20746865204d6f6f6e2c2061742061676520333620796561727320616e642032303120646179732e436170742e20526f6e616c6420456c6c77696e204576616e73204a722e2c2055534e20284e6f76656d6265722031302c2031393333202d20417072696c20372c2031393930292077617320616e20416d65726963616e206e6176616c206f66666963657220616e642061766961746f722c20656c656374726963616c20656e67696e6565722c206165726f6e6175746963616c20656e67696e6565722c20616e64204e41534120617374726f6e6175742e20417320636f6d6d616e64206d6f64756c652070696c6f74206f6e2041706f6c6c6f20313720686520776173206f6e65206f662074686520323420617374726f6e6175747320746f206861766520666c6f776e20746f20746865204d6f6f6e2c20616e64206f6e65206f662031322070656f706c6520746f206861766520666c6f776e20746f20746865204d6f6f6e20776974686f7574206c616e64696e67206f6e2069742e4a6f686e204c656f6e6172642053776967657274204a722e20284175677573742033302c2031393331202d20446563656d6265722032372c2031393832292077617320616e20416d65726963616e204e41534120617374726f6e6175742c20746573742070696c6f742c206d656368616e6963616c20656e67696e6565722c206165726f737061636520656e67696e6565722c20556e69746564205374617465732041697220466f7263652070696c6f742c20616e6420706f6c6974696369616e2e20496e20417072696c20313937302c20617320636f6d6d616e64206d6f64756c652070696c6f74206f662041706f6c6c6f2031332c20686520626563616d65206f6e65206f66207477656e74792d666f757220617374726f6e617574732077686f20666c657720746f20746865204d6f6f6e2e42757a7a20416c6472696e2028626f726e20456477696e20457567656e6520416c6472696e204a722e2c204a616e756172792032302c20313933302920697320616e20416d65726963616e20666f726d657220617374726f6e6175742c20656e67696e65657220616e6420666967687465722070696c6f742e20416c6472696e206d61646520746872656520737061636577616c6b732061732070696c6f74206f662074686520313936362047656d696e69203132206d697373696f6e2c20616e642c206173204c756e6172204d6f64756c65204561676c652070696c6f74206f6e2074686520313936392041706f6c6c6f203131206d697373696f6e2c20686520616e64206d697373696f6e20636f6d6d616e646572204e65696c2041726d7374726f6e672077657265207468652066697273742074776f2070656f706c6520746f206c616e64206f6e20746865204d6f6f6e2e20416c6472696e20697320746865206c61737420737572766976696e672063726577206d656d626572206f662041706f6c6c6f2031312e53747561727420416c6c656e20526f6f736120284175677573742031362c2031393333202d20446563656d6265722031322c2031393934292077617320616e20416d65726963616e206165726f6e6175746963616c20656e67696e6565722c20736d6f6b656a756d7065722c20556e69746564205374617465732041697220466f7263652070696c6f742c20746573742070696c6f742c20616e64204e41534120617374726f6e6175742c2077686f207761732074686520436f6d6d616e64204d6f64756c652050696c6f7420666f72207468652041706f6c6c6f203134206d697373696f6e2e20546865206d697373696f6e206c61737465642066726f6d204a616e7561727920333120746f20466562727561727920392c20313937312c20616e642077617320746865207468697264206d697373696f6e20746f206c616e6420617374726f6e617574732028416c616e205368657061726420616e64204564676172204d69746368656c6c29206f6e20746865204d6f6f6e2e205768696c65205368657061726420616e64204d69746368656c6c207370656e742074776f2064617973206f6e20746865206c756e617220737572666163652c20526f6f736120636f6e647563746564206578706572696d656e74732066726f6d206f7262697420696e2074686520436f6d6d616e64204d6f64756c65204b69747479204861776b2e20486520776173206f6e65206f66203234206d656e20746f2074726176656c20746f20746865204d6f6f6e2c207768696368206865206f7262697465642033342074696d65732e446f6e6e2046756c746f6e20456973656c6520284a756e652032332c2031393330202d20446563656d62657220322c2031393837292028436f6c6f6e656c2c20555341462920776173206120556e69746564205374617465732041697220466f726365206f6666696365722c20746573742070696c6f742c20616e64206c617465722061204e41534120617374726f6e6175742e204865206f636375706965642074686520636f6d6d616e64206d6f64756c652070696c6f74207365617420647572696e672074686520666c69676874206f662041706f6c6c6f203720696e20313936382e526f6e6e69652057616c7465722043756e6e696e6768616d2028626f726e204d617263682031362c20313933322920697320616e20416d65726963616e207265746972656420617374726f6e6175742e20496e20313936382c206865207761732061206c756e6172206d6f64756c652070696c6f74206f6e207468652041706f6c6c6f2037206d697373696f6e2e20486520776173204e415341277320746869726420636976696c69616e20617374726f6e61757420286166746572204e65696c2041726d7374726f6e6720616e6420456c6c696f7420536565292c20616e642068617320616c736f206265656e206120666967687465722070696c6f742c207068797369636973742c20656e7472657072656e6575722c2076656e74757265206361706974616c6973742c20616e6420617574686f72206f662054686520416c6c2d416d65726963616e20426f79732e20466f6c6c6f77696e672074686520646561746873206f6620446f6e6e20462e20456973656c6520696e203139383720616e642057616c6c79205363686972726120696e20323030372c2043756e6e696e6768616d20697320746865206c61737420737572766976696e672063726577206d656d626572206f662041706f6c6c6f20372e4a616d657320417274687572204c6f76656c6c204a722e2028626f726e204d617263682032352c20313932382920697320616e20416d65726963616e207265746972656420617374726f6e6175742c206e6176616c2061766961746f722c20616e64206d656368616e6963616c20656e67696e6565722e20496e20313936382c20617320636f6d6d616e64206d6f64756c652070696c6f74206f662041706f6c6c6f20382c20686520626563616d652c2077697468204672616e6b20426f726d616e20616e642057696c6c69616d20416e646572732c206f6e65206f662074686520666972737420746872656520617374726f6e6175747320746f20666c7920746f20616e64206f7262697420746865204d6f6f6e2e204865207468656e20636f6d6d616e6465642074686520313937302041706f6c6c6f203133206c756e6172206d697373696f6e2077686963682c206166746572206120637269746963616c206661696c75726520656e20726f7574652c20636972636c65642061726f756e6420746865204d6f6f6e20616e642072657475726e656420736166656c7920746f204561727468207468726f75676820746865206566666f727473206f6620746865206372657720616e64206d697373696f6e20636f6e74726f6c2e436f6c2e2044617669642052616e646f6c70682053636f74742c20555341462c205265742e2028626f726e204a756e6520362c20313933322920697320616e20416d65726963616e207265746972656420746573742070696c6f7420616e64204e41534120617374726f6e6175742077686f207761732074686520736576656e746820706572736f6e20746f2077616c6b206f6e20746865204d6f6f6e2e2054686520636f6d6d616e646572206f662041706f6c6c6f2031352c2053636f7474207761732073656c656374656420617320616e20617374726f6e6175742061732070617274206f66207468652074686972642067726f757020696e20313936332e2053636f747420666c657720746f2073706163652074687265652074696d65732c20616e64206973206f6e65206f6620666f757220737572766976696e67204d6f6f6e2077616c6b65727320616e6420746865206c61737420737572766976696e672063726577206d656d626572206f662041706f6c6c6f2031352e457567656e6520416e64726577204365726e616e20284d617263682031342c2031393334202d204a616e756172792031362c2032303137292077617320616e20416d65726963616e20617374726f6e6175742c206e6176616c2061766961746f722c20656c656374726963616c20656e67696e6565722c206165726f6e6175746963616c20656e67696e6565722c20616e6420666967687465722070696c6f742e20447572696e67207468652041706f6c6c6f203137206d697373696f6e2c204365726e616e20626563616d652074686520656c6576656e7468206d616e20746f2077616c6b206f6e20746865204d6f6f6e2e2041732068652072652d656e7465726564207468652041706f6c6c6f204c756e6172204d6f64756c65206166746572204861727269736f6e205363686d697474206f6e20746865697220746869726420616e642066696e616c206c756e617220657863757273696f6e2c20686520697320746865206c617374206d616e20746f2077616c6b206f6e20746865204d6f6f6e206173206f6620323032312e467265642057616c6c616365204861697365204a722e2028626f726e204e6f76656d6265722031342c20313933332920697320616e20416d65726963616e20666f726d6572204e41534120617374726f6e6175742c20656e67696e6565722c20666967687465722070696c6f7420776974682074686520552e532e204d6172696e6520436f72707320616e6420552e532e2041697220466f7263652c20616e64206120746573742070696c6f742e204865206973206f6e65206f66206f6e6c792032342070656f706c6520746f206861766520666c6f776e20746f20746865204d6f6f6e2c20686176696e6720666c6f776e206173204c756e6172204d6f64756c652050696c6f74206f6e2041706f6c6c6f2031332e2048652077617320746f2068617665206265656e2074686520736978746820706572736f6e20746f2077616c6b206f6e20746865204d6f6f6e2c20627574207468652041706f6c6c6f203133206c616e64696e67206d697373696f6e207761732061626f7274656420656e20726f7574652e4d69636861656c20436f6c6c696e7320284f63746f6265722033312c2031393330202d20417072696c2032382c2032303231292077617320616e20416d65726963616e20617374726f6e6175742077686f20666c6577207468652041706f6c6c6f20313120636f6d6d616e64206d6f64756c6520436f6c756d6269612061726f756e6420746865204d6f6f6e20696e2031393639207768696c652068697320637265776d617465732c204e65696c2041726d7374726f6e6720616e642042757a7a20416c6472696e2c206d6164652074686520666972737420637265776564206c616e64696e67206f6e2074686520737572666163652e2048652077617320616c736f206120746573742070696c6f7420616e64206d616a6f722067656e6572616c20696e2074686520552e532e2041697220466f7263652052657365727665732e52757373656c6c204c6f756973202752757374792720536368776569636b6172742028616c736f205363687765696b6172743b20626f726e204f63746f6265722032352c20313933352920697320616e20416d65726963616e206165726f6e6175746963616c20656e67696e6565722c20616e64206120666f726d6572204e41534120617374726f6e6175742c20726573656172636820736369656e746973742c20552e532e2041697220466f72636520666967687465722070696c6f742c2061732077656c6c206173206120666f726d657220627573696e6573732065786563757469766520616e6420676f7665726e6d656e74206578656375746976652e56697267696c204976616e2027477573272047726973736f6d2028417072696c20332c2031393236202d204a616e756172792032372c20313936372920776173206120556e69746564205374617465732041697220466f726365202855534146292070696c6f7420616e642061206d656d626572206f6620746865204d65726375727920536576656e2073656c6563746564206279204e6174696f6e616c204165726f6e61757469637320616e642053706163652041646d696e697374726174696f6e277320284e415341292061732050726f6a656374204d65726375727920617374726f6e6175747320746f2062652074686520666972737420416d65726963616e7320696e206f757465722073706163652e2048652077617320612050726f6a6563742047656d696e6920616e6420616e2041706f6c6c6f2070726f6772616d20617374726f6e6175742e2041732061206d656d626572206f6620746865204e41534120417374726f6e61757420436f7270732c2047726973736f6d2077617320746865207365636f6e6420416d65726963616e20746f20666c7920696e2073706163652e2048652077617320616c736f20746865207365636f6e6420416d65726963616e20746f20666c7920696e2073706163652074776963652c207072656365646564206f6e6c79206279204a6f652057616c6b6572207769746820686973207375622d6f72626974616c20582d313520666c69676874732e4564776172642048696767696e7320576869746520494920284e6f76656d6265722031342c2031393330202d204a616e756172792032372c2031393637292077617320616e20416d65726963616e206165726f6e6175746963616c20656e67696e6565722c20556e69746564205374617465732041697220466f726365206f6666696365722c20746573742070696c6f742c20616e64204e41534120617374726f6e6175742e204865207761732061206d656d626572206f6620746865206372657773206f662047656d696e69203420616e642041706f6c6c6f20312e436f6c2e204a616d65732042656e736f6e20497277696e2c205553414620284d617263682031372c2031393330202d2041756775737420382c2031393931292077617320616e20416d65726963616e20617374726f6e6175742c206165726f6e6175746963616c20656e67696e6565722c20746573742070696c6f742c20616e64206120556e69746564205374617465732041697220466f7263652070696c6f742e204865207365727665642061732041706f6c6c6f204c756e6172204d6f64756c652070696c6f7420666f722041706f6c6c6f2031352c2074686520666f757274682068756d616e206c756e6172206c616e64696e672e20486520776173207468652065696768746820706572736f6e20746f2077616c6b206f6e20746865204d6f6f6e20616e64207468652066697273742c20616e6420796f756e676573742c206f662074686f736520617374726f6e6175747320746f206469652e416c616e204c615665726e204265616e20284d617263682031352c2031393332202d204d61792032362c2032303138292077617320616e20416d65726963616e206e6176616c206f66666963657220616e642061766961746f722c206165726f6e6175746963616c20656e67696e6565722c20746573742070696c6f742c20616e64204e41534120617374726f6e6175743b206865207761732074686520666f7572746820706572736f6e20746f2077616c6b206f6e20746865204d6f6f6e2e204865207761732073656c656374656420746f206265636f6d6520616e20617374726f6e617574206279204e41534120696e20313936332061732070617274206f6620417374726f6e6175742047726f757020332e4a6f686e20576174747320596f756e67202853657074656d6265722032342c2031393330202d204a616e7561727920352c2032303138292077617320616e20416d65726963616e20617374726f6e6175742c206e6176616c206f66666963657220616e642061766961746f722c20746573742070696c6f742c20616e64206165726f6e6175746963616c20656e67696e6565722e20486520626563616d6520746865206e696e746820706572736f6e20746f2077616c6b206f6e20746865204d6f6f6e20617320636f6d6d616e646572206f66207468652041706f6c6c6f203136206d697373696f6e20696e20313937322e20486520666c6577206f6e20666f757220646966666572656e7420636c6173736573206f6620737061636563726166743a2047656d696e692c207468652041706f6c6c6f20636f6d6d616e6420616e642073657276696365206d6f64756c652c207468652041706f6c6c6f204c756e6172204d6f64756c652c20616e64207468652053706163652053687574746c652e416c616e20426172746c6574742053686570617264204a722e20284e6f76656d6265722031382c2031393233202d204a756c792032312c2031393938292077617320616e20416d65726963616e20617374726f6e6175742c206e6176616c2061766961746f722c20746573742070696c6f742c20616e6420627573696e6573736d616e2e20496e20313936312c20686520626563616d6520746865207365636f6e64206d616e20616e642074686520666972737420416d65726963616e20746f2074726176656c20696e746f2073706163652c20616e6420696e20313937312c2068652077616c6b6564206f6e20746865204d6f6f6e2e4f6e6520736d616c6c207374657020666f72206d616e2c206f6e65206769616e74206c65617020666f72206d616e6b696e644a616d657320416c746f6e204d634469766974742028626f726e204a756e652031302c20313932392920697320616e20416d65726963616e20666f726d657220746573742070696c6f742c20556e69746564205374617465732041697220466f726365202855534146292070696c6f742c206165726f6e6175746963616c20656e67696e6565722c20616e64204e41534120617374726f6e6175742077686f20666c657720696e207468652047656d696e6920616e642041706f6c6c6f2070726f6772616d732e4861727269736f6e20486167616e20274a61636b27205363686d6974742028626f726e204a756c7920332c20313933352920697320616e20416d65726963616e2067656f6c6f676973742c2072657469726564204e41534120617374726f6e6175742c20756e69766572736974792070726f666573736f722c20666f726d657220552e532e2073656e61746f722066726f6d204e6577204d657869636f2c20616e6420746865206d6f737420726563656e7420706572736f6e206c6976696e6720746f20686176652077616c6b6564206f6e20746865204d6f6f6e2e",
  "linkReferences": {},
  "deployedLinkReferences": {}
}